{
  "contractName": "OZTTokenSale",
  "abi": [
    {
      "constant": true,
      "inputs": [],
      "name": "hasClosed",
      "outputs": [
        {
          "name": "",
          "type": "bool"
        }
      ],
      "payable": false,
      "stateMutability": "view",
      "type": "function"
    },
    {
      "constant": true,
      "inputs": [],
      "name": "rate",
      "outputs": [
        {
          "name": "",
          "type": "uint256"
        }
      ],
      "payable": false,
      "stateMutability": "view",
      "type": "function"
    },
    {
      "constant": false,
      "inputs": [],
      "name": "unpause",
      "outputs": [],
      "payable": false,
      "stateMutability": "nonpayable",
      "type": "function"
    },
    {
      "constant": true,
      "inputs": [],
      "name": "weiRaised",
      "outputs": [
        {
          "name": "",
          "type": "uint256"
        }
      ],
      "payable": false,
      "stateMutability": "view",
      "type": "function"
    },
    {
      "constant": true,
      "inputs": [],
      "name": "closingTime",
      "outputs": [
        {
          "name": "",
          "type": "uint256"
        }
      ],
      "payable": false,
      "stateMutability": "view",
      "type": "function"
    },
    {
      "constant": true,
      "inputs": [],
      "name": "wallet",
      "outputs": [
        {
          "name": "",
          "type": "address"
        }
      ],
      "payable": false,
      "stateMutability": "view",
      "type": "function"
    },
    {
      "constant": true,
      "inputs": [],
      "name": "paused",
      "outputs": [
        {
          "name": "",
          "type": "bool"
        }
      ],
      "payable": false,
      "stateMutability": "view",
      "type": "function"
    },
    {
      "constant": false,
      "inputs": [],
      "name": "pause",
      "outputs": [],
      "payable": false,
      "stateMutability": "nonpayable",
      "type": "function"
    },
    {
      "constant": true,
      "inputs": [],
      "name": "min_wei_amount_sale",
      "outputs": [
        {
          "name": "",
          "type": "uint256"
        }
      ],
      "payable": false,
      "stateMutability": "view",
      "type": "function"
    },
    {
      "constant": true,
      "inputs": [],
      "name": "owner",
      "outputs": [
        {
          "name": "",
          "type": "address"
        }
      ],
      "payable": false,
      "stateMutability": "view",
      "type": "function"
    },
    {
      "constant": true,
      "inputs": [],
      "name": "openingTime",
      "outputs": [
        {
          "name": "",
          "type": "uint256"
        }
      ],
      "payable": false,
      "stateMutability": "view",
      "type": "function"
    },
    {
      "constant": true,
      "inputs": [],
      "name": "min_token_amount_sale",
      "outputs": [
        {
          "name": "",
          "type": "uint256"
        }
      ],
      "payable": false,
      "stateMutability": "view",
      "type": "function"
    },
    {
      "constant": false,
      "inputs": [
        {
          "name": "_beneficiary",
          "type": "address"
        }
      ],
      "name": "buyTokens",
      "outputs": [],
      "payable": true,
      "stateMutability": "payable",
      "type": "function"
    },
    {
      "constant": false,
      "inputs": [
        {
          "name": "newOwner",
          "type": "address"
        }
      ],
      "name": "transferOwnership",
      "outputs": [],
      "payable": false,
      "stateMutability": "nonpayable",
      "type": "function"
    },
    {
      "constant": true,
      "inputs": [],
      "name": "token",
      "outputs": [
        {
          "name": "",
          "type": "address"
        }
      ],
      "payable": false,
      "stateMutability": "view",
      "type": "function"
    },
    {
      "inputs": [
        {
          "name": "_openingTime",
          "type": "uint256"
        },
        {
          "name": "_closingTime",
          "type": "uint256"
        },
        {
          "name": "_rate",
          "type": "uint256"
        },
        {
          "name": "_wallet",
          "type": "address"
        },
        {
          "name": "_token",
          "type": "address"
        },
        {
          "name": "_min_token_amount_sale",
          "type": "uint256"
        }
      ],
      "payable": false,
      "stateMutability": "nonpayable",
      "type": "constructor"
    },
    {
      "payable": true,
      "stateMutability": "payable",
      "type": "fallback"
    },
    {
      "anonymous": false,
      "inputs": [
        {
          "indexed": true,
          "name": "purchaser",
          "type": "address"
        },
        {
          "indexed": true,
          "name": "beneficiary",
          "type": "address"
        },
        {
          "indexed": false,
          "name": "value",
          "type": "uint256"
        },
        {
          "indexed": false,
          "name": "amount",
          "type": "uint256"
        }
      ],
      "name": "TokenPurchase",
      "type": "event"
    },
    {
      "anonymous": false,
      "inputs": [],
      "name": "Pause",
      "type": "event"
    },
    {
      "anonymous": false,
      "inputs": [],
      "name": "Unpause",
      "type": "event"
    },
    {
      "anonymous": false,
      "inputs": [
        {
          "indexed": true,
          "name": "previousOwner",
          "type": "address"
        },
        {
          "indexed": true,
          "name": "newOwner",
          "type": "address"
        }
      ],
      "name": "OwnershipTransferred",
      "type": "event"
    },
    {
      "constant": false,
      "inputs": [
        {
          "name": "_to",
          "type": "address"
        },
        {
          "name": "_value",
          "type": "uint256"
        }
      ],
      "name": "transferTokens",
      "outputs": [],
      "payable": false,
      "stateMutability": "nonpayable",
      "type": "function"
    }
  ],
  "bytecode": "0x60606040526000805460a060020a60ff0219169055341561001f57600080fd5b60405160c08061084083398101604052808051919060200180519190602001805191906020018051919060200180519190602001805160008054600160a060020a03191633600160a060020a03161781559092508791508690869086908690831161008957600080fd5b600160a060020a038216151561009e57600080fd5b600160a060020a03811615156100b357600080fd5b60039290925560028054600160a060020a03928316600160a060020a03199182161790915560018054929093169116179055428210156100f257600080fd5b818110156100ff57600080fd5b6005919091556006556007819055838181151561011857fe5b0460085550505050505061070f806101316000396000f3006060604052600436106100e55763ffffffff7c01000000000000000000000000000000000000000000000000000000006000350416631515bc2b81146100f05780632c4e722e146101175780633f4ba83a1461013c5780634042b66f1461014f5780634b6753bc14610162578063521eb273146101755780635c975abb146101a45780638456cb59146101b757806388e1284b146101ca5780638da5cb5b146101dd578063b7a8807c146101f0578063bec3fa1714610203578063e9b5e80214610225578063ec8ac4d814610238578063f2fde38b1461024c578063fc0c546a1461026b575b6100ee3361027e565b005b34156100fb57600080fd5b610103610326565b604051901515815260200160405180910390f35b341561012257600080fd5b61012a61032e565b60405190815260200160405180910390f35b341561014757600080fd5b6100ee610334565b341561015a57600080fd5b61012a6103b3565b341561016d57600080fd5b61012a6103b9565b341561018057600080fd5b6101886103bf565b604051600160a060020a03909116815260200160405180910390f35b34156101af57600080fd5b6101036103ce565b34156101c257600080fd5b6100ee6103de565b34156101d557600080fd5b61012a610462565b34156101e857600080fd5b610188610468565b34156101fb57600080fd5b61012a610477565b341561020e57600080fd5b6100ee600160a060020a036004351660243561047d565b341561023057600080fd5b61012a610522565b6100ee600160a060020a036004351661027e565b341561025757600080fd5b6100ee600160a060020a0360043516610528565b341561027657600080fd5b6101886105c3565b34600061028b83836105d2565b61029482610606565b6004549091506102aa908363ffffffff61062316565b6004556102b78382610630565b82600160a060020a031633600160a060020a03167f623b3804fa71d67900d064613da8f94b9617215ee90799290593e1745087ad18848460405191825260208201526040908101905180910390a361030f8383610602565b61031761063a565b6103218383610602565b505050565b600654421190565b60035481565b60005433600160a060020a0390811691161461034f57600080fd5b60005460a060020a900460ff16151561036757600080fd5b6000805474ff0000000000000000000000000000000000000000191690557f7805862f689e2f13df9f062ff482ad3ad112aca9e0847911ed832e158c525b3360405160405180910390a1565b60045481565b60065481565b600254600160a060020a031681565b60005460a060020a900460ff1681565b60005433600160a060020a039081169116146103f957600080fd5b60005460a060020a900460ff161561041057600080fd5b6000805474ff0000000000000000000000000000000000000000191660a060020a1790557f6985a02210a168e66602d3235cb6db0e70f92b3ba4d376a33c0f3d9434bff62560405160405180910390a1565b60085481565b600054600160a060020a031681565b60055481565b60005433600160a060020a0390811691161461049857600080fd5b600154600160a060020a031663a9059cbb83836040517c010000000000000000000000000000000000000000000000000000000063ffffffff8516028152600160a060020a0390921660048301526024820152604401602060405180830381600087803b151561050757600080fd5b5af1151561051457600080fd5b505050604051805150505050565b60075481565b60005433600160a060020a0390811691161461054357600080fd5b600160a060020a038116151561055857600080fd5b600054600160a060020a0380831691167f8be0079c531659141344cd1fd0a4f28419497f9722a3daafe3b4186f6b6457e060405160405180910390a36000805473ffffffffffffffffffffffffffffffffffffffff1916600160a060020a0392909216919091179055565b600154600160a060020a031681565b60005460a060020a900460ff16156105e957600080fd5b6008548110156105f857600080fd5b6106028282610670565b5050565b600061061d6003548361069990919063ffffffff16565b92915050565b8181018281101561061d57fe5b6106028282610498565b600254600160a060020a03163480156108fc0290604051600060405180830381858888f19350505050151561066e57600080fd5b565b600554421015801561068457506006544211155b151561068f57600080fd5b61060282826106c2565b60008215156106aa5750600061061d565b508181028183828115156106ba57fe5b041461061d57fe5b600160a060020a03821615156106d757600080fd5b80151561060257600080fd00a165627a7a723058205651c5944d96be55688c7103e7ba99543644fe0ff525ddf7a4cc73953c1fbebf0029",
  "source": "pragma solidity 0.4.21;\n\nimport 'zeppelin-solidity/contracts/crowdsale/validation/TimedCrowdsale.sol';\nimport 'zeppelin-solidity/contracts/lifecycle/Pausable.sol';\n\n\ncontract OZTTokenSale is Pausable, TimedCrowdsale {\n\n\n    // minimum amount of OZT tokens, allowed to buy\n    uint256 public min_token_amount_sale;\n    // minimum amount of ETH, used to buy tokens, derived from min_token_amount_sale\n    uint256 public min_wei_amount_sale;\n\n    function OZTTokenSale(  uint256 _openingTime,\n                            uint256 _closingTime,\n                            uint256 _rate,\n                            address _wallet,\n                            ERC20 _token,\n                            uint256 _min_token_amount_sale\n                            )\n        TimedCrowdsale( _openingTime,  _closingTime)\n        Crowdsale( _rate,  _wallet,  _token) public {\n        min_token_amount_sale = _min_token_amount_sale;\n        min_wei_amount_sale = _min_token_amount_sale / _rate;\n    }\n\n  /**\n   * @dev Extend parent behavior requiring to be within contributing period\n   * @param _beneficiary Token purchaser\n   * @param _weiAmount Amount of wei contributed\n   */\n  function _preValidatePurchase(address _beneficiary, uint256 _weiAmount) internal whenNotPaused {\n    require(_weiAmount >= min_wei_amount_sale);\n    super._preValidatePurchase(_beneficiary, _weiAmount);\n  }\n\n  /*\n  * @dev transfer tokens\n  * @param _to token receiver\n  * @param _value token amount\n  */\n  function transferTokens(address _to, uint256 _value) onlyOwner public {\n    token.transfer(_to, _value);\n  }\n\n\n\n}\n",
  "sourcePath": "/Users/studnev/audit/OZT-studnev/contracts/OZTTokenSale.sol",
  "compiler": {
    "name": "solc",
    "version": "0.4.21+commit.dfe3193c.Emscripten.clang"
  },
  "schemaVersion": "2.0.0",
  "updatedAt": "2018-05-24T09:05:45.275Z"
}