{
  "contractName": "OZTToken",
  "abi": [
    {
      "constant": true,
      "inputs": [],
      "name": "name",
      "outputs": [
        {
          "name": "",
          "type": "string"
        }
      ],
      "payable": false,
      "stateMutability": "view",
      "type": "function"
    },
    {
      "constant": false,
      "inputs": [
        {
          "name": "_spender",
          "type": "address"
        },
        {
          "name": "_value",
          "type": "uint256"
        }
      ],
      "name": "approve",
      "outputs": [
        {
          "name": "",
          "type": "bool"
        }
      ],
      "payable": false,
      "stateMutability": "nonpayable",
      "type": "function"
    },
    {
      "constant": true,
      "inputs": [],
      "name": "batchAssignStopped",
      "outputs": [
        {
          "name": "",
          "type": "bool"
        }
      ],
      "payable": false,
      "stateMutability": "view",
      "type": "function"
    },
    {
      "constant": true,
      "inputs": [],
      "name": "totalSupply",
      "outputs": [
        {
          "name": "",
          "type": "uint256"
        }
      ],
      "payable": false,
      "stateMutability": "view",
      "type": "function"
    },
    {
      "constant": true,
      "inputs": [
        {
          "name": "",
          "type": "address"
        }
      ],
      "name": "icedBalances_frosted",
      "outputs": [
        {
          "name": "",
          "type": "uint256"
        }
      ],
      "payable": false,
      "stateMutability": "view",
      "type": "function"
    },
    {
      "constant": false,
      "inputs": [
        {
          "name": "_from",
          "type": "address"
        },
        {
          "name": "_to",
          "type": "address"
        },
        {
          "name": "_value",
          "type": "uint256"
        }
      ],
      "name": "transferFrom",
      "outputs": [
        {
          "name": "",
          "type": "bool"
        }
      ],
      "payable": false,
      "stateMutability": "nonpayable",
      "type": "function"
    },
    {
      "constant": true,
      "inputs": [],
      "name": "decimals",
      "outputs": [
        {
          "name": "",
          "type": "uint256"
        }
      ],
      "payable": false,
      "stateMutability": "view",
      "type": "function"
    },
    {
      "constant": true,
      "inputs": [
        {
          "name": "",
          "type": "uint256"
        }
      ],
      "name": "vIcedBalances",
      "outputs": [
        {
          "name": "",
          "type": "address"
        }
      ],
      "payable": false,
      "stateMutability": "view",
      "type": "function"
    },
    {
      "constant": false,
      "inputs": [
        {
          "name": "_spender",
          "type": "address"
        },
        {
          "name": "_subtractedValue",
          "type": "uint256"
        }
      ],
      "name": "decreaseApproval",
      "outputs": [
        {
          "name": "success",
          "type": "bool"
        }
      ],
      "payable": false,
      "stateMutability": "nonpayable",
      "type": "function"
    },
    {
      "constant": true,
      "inputs": [
        {
          "name": "_owner",
          "type": "address"
        }
      ],
      "name": "balanceOf",
      "outputs": [
        {
          "name": "balance",
          "type": "uint256"
        }
      ],
      "payable": false,
      "stateMutability": "view",
      "type": "function"
    },
    {
      "constant": true,
      "inputs": [],
      "name": "START_ICO_TIMESTAMP",
      "outputs": [
        {
          "name": "",
          "type": "uint256"
        }
      ],
      "payable": false,
      "stateMutability": "view",
      "type": "function"
    },
    {
      "constant": true,
      "inputs": [
        {
          "name": "",
          "type": "address"
        }
      ],
      "name": "icedBalances_defrosted",
      "outputs": [
        {
          "name": "",
          "type": "uint256"
        }
      ],
      "payable": false,
      "stateMutability": "view",
      "type": "function"
    },
    {
      "constant": true,
      "inputs": [],
      "name": "owner",
      "outputs": [
        {
          "name": "",
          "type": "address"
        }
      ],
      "payable": false,
      "stateMutability": "view",
      "type": "function"
    },
    {
      "constant": true,
      "inputs": [],
      "name": "symbol",
      "outputs": [
        {
          "name": "",
          "type": "string"
        }
      ],
      "payable": false,
      "stateMutability": "view",
      "type": "function"
    },
    {
      "constant": false,
      "inputs": [
        {
          "name": "_to",
          "type": "address"
        },
        {
          "name": "_value",
          "type": "uint256"
        }
      ],
      "name": "transfer",
      "outputs": [
        {
          "name": "",
          "type": "bool"
        }
      ],
      "payable": false,
      "stateMutability": "nonpayable",
      "type": "function"
    },
    {
      "constant": true,
      "inputs": [],
      "name": "DEFROST_FACTOR",
      "outputs": [
        {
          "name": "",
          "type": "uint256"
        }
      ],
      "payable": false,
      "stateMutability": "view",
      "type": "function"
    },
    {
      "constant": true,
      "inputs": [],
      "name": "assignedSupply",
      "outputs": [
        {
          "name": "",
          "type": "uint256"
        }
      ],
      "payable": false,
      "stateMutability": "view",
      "type": "function"
    },
    {
      "constant": true,
      "inputs": [],
      "name": "stopDefrost",
      "outputs": [
        {
          "name": "",
          "type": "bool"
        }
      ],
      "payable": false,
      "stateMutability": "view",
      "type": "function"
    },
    {
      "constant": true,
      "inputs": [],
      "name": "DEFROST_MONTHS",
      "outputs": [
        {
          "name": "",
          "type": "int256"
        }
      ],
      "payable": false,
      "stateMutability": "view",
      "type": "function"
    },
    {
      "constant": false,
      "inputs": [
        {
          "name": "_spender",
          "type": "address"
        },
        {
          "name": "_addedValue",
          "type": "uint256"
        }
      ],
      "name": "increaseApproval",
      "outputs": [
        {
          "name": "success",
          "type": "bool"
        }
      ],
      "payable": false,
      "stateMutability": "nonpayable",
      "type": "function"
    },
    {
      "constant": true,
      "inputs": [
        {
          "name": "_owner",
          "type": "address"
        },
        {
          "name": "_spender",
          "type": "address"
        }
      ],
      "name": "allowance",
      "outputs": [
        {
          "name": "remaining",
          "type": "uint256"
        }
      ],
      "payable": false,
      "stateMutability": "view",
      "type": "function"
    },
    {
      "constant": true,
      "inputs": [],
      "name": "DEFROST_MONTH_IN_MINUTES",
      "outputs": [
        {
          "name": "",
          "type": "int256"
        }
      ],
      "payable": false,
      "stateMutability": "view",
      "type": "function"
    },
    {
      "constant": false,
      "inputs": [
        {
          "name": "newOwner",
          "type": "address"
        }
      ],
      "name": "transferOwnership",
      "outputs": [],
      "payable": false,
      "stateMutability": "nonpayable",
      "type": "function"
    },
    {
      "constant": true,
      "inputs": [],
      "name": "MAX_NUM_OZT_TOKENS",
      "outputs": [
        {
          "name": "",
          "type": "uint256"
        }
      ],
      "payable": false,
      "stateMutability": "view",
      "type": "function"
    },
    {
      "inputs": [],
      "payable": false,
      "stateMutability": "nonpayable",
      "type": "constructor"
    },
    {
      "anonymous": false,
      "inputs": [
        {
          "indexed": true,
          "name": "owner",
          "type": "address"
        },
        {
          "indexed": true,
          "name": "spender",
          "type": "address"
        },
        {
          "indexed": false,
          "name": "value",
          "type": "uint256"
        }
      ],
      "name": "Approval",
      "type": "event"
    },
    {
      "anonymous": false,
      "inputs": [
        {
          "indexed": true,
          "name": "from",
          "type": "address"
        },
        {
          "indexed": true,
          "name": "to",
          "type": "address"
        },
        {
          "indexed": false,
          "name": "value",
          "type": "uint256"
        }
      ],
      "name": "Transfer",
      "type": "event"
    },
    {
      "constant": false,
      "inputs": [
        {
          "name": "addr",
          "type": "address"
        }
      ],
      "name": "setDefroster",
      "outputs": [],
      "payable": false,
      "stateMutability": "nonpayable",
      "type": "function"
    },
    {
      "constant": false,
      "inputs": [
        {
          "name": "_vaddr",
          "type": "address[]"
        },
        {
          "name": "_vamounts",
          "type": "uint256[]"
        },
        {
          "name": "_vDefrostClass",
          "type": "uint256[]"
        }
      ],
      "name": "batchAssignTokens",
      "outputs": [],
      "payable": false,
      "stateMutability": "nonpayable",
      "type": "function"
    },
    {
      "constant": true,
      "inputs": [],
      "name": "getBlockTimestamp",
      "outputs": [
        {
          "name": "",
          "type": "uint256"
        }
      ],
      "payable": false,
      "stateMutability": "view",
      "type": "function"
    },
    {
      "constant": true,
      "inputs": [],
      "name": "getAssignedSupply",
      "outputs": [
        {
          "name": "",
          "type": "uint256"
        }
      ],
      "payable": false,
      "stateMutability": "view",
      "type": "function"
    },
    {
      "constant": true,
      "inputs": [],
      "name": "elapsedMonthsFromICOStart",
      "outputs": [
        {
          "name": "elapsed",
          "type": "int256"
        }
      ],
      "payable": false,
      "stateMutability": "view",
      "type": "function"
    },
    {
      "constant": true,
      "inputs": [],
      "name": "getDefrostFactor",
      "outputs": [
        {
          "name": "",
          "type": "uint256"
        }
      ],
      "payable": false,
      "stateMutability": "view",
      "type": "function"
    },
    {
      "constant": true,
      "inputs": [],
      "name": "lagDefrost",
      "outputs": [
        {
          "name": "",
          "type": "int256"
        }
      ],
      "payable": false,
      "stateMutability": "view",
      "type": "function"
    },
    {
      "constant": true,
      "inputs": [],
      "name": "canDefrost",
      "outputs": [
        {
          "name": "",
          "type": "bool"
        }
      ],
      "payable": false,
      "stateMutability": "view",
      "type": "function"
    },
    {
      "constant": false,
      "inputs": [
        {
          "name": "fromIdx",
          "type": "uint256"
        },
        {
          "name": "toIdx",
          "type": "uint256"
        }
      ],
      "name": "defrostTokens",
      "outputs": [],
      "payable": false,
      "stateMutability": "nonpayable",
      "type": "function"
    },
    {
      "constant": true,
      "inputs": [],
      "name": "getStartIcoTimestamp",
      "outputs": [
        {
          "name": "",
          "type": "uint256"
        }
      ],
      "payable": false,
      "stateMutability": "view",
      "type": "function"
    },
    {
      "constant": false,
      "inputs": [],
      "name": "stopBatchAssign",
      "outputs": [],
      "payable": false,
      "stateMutability": "nonpayable",
      "type": "function"
    },
    {
      "constant": true,
      "inputs": [
        {
          "name": "addr",
          "type": "address"
        }
      ],
      "name": "getAddressBalance",
      "outputs": [
        {
          "name": "balance",
          "type": "uint256"
        }
      ],
      "payable": false,
      "stateMutability": "view",
      "type": "function"
    },
    {
      "constant": true,
      "inputs": [
        {
          "name": "addr",
          "type": "address"
        }
      ],
      "name": "getAddressAndBalance",
      "outputs": [
        {
          "name": "_address",
          "type": "address"
        },
        {
          "name": "_amount",
          "type": "uint256"
        }
      ],
      "payable": false,
      "stateMutability": "view",
      "type": "function"
    },
    {
      "constant": false,
      "inputs": [],
      "name": "setStopDefrost",
      "outputs": [],
      "payable": false,
      "stateMutability": "nonpayable",
      "type": "function"
    },
    {
      "constant": false,
      "inputs": [],
      "name": "killContract",
      "outputs": [],
      "payable": false,
      "stateMutability": "nonpayable",
      "type": "function"
    }
  ],
  "bytecode": "0x60606040526008805461ffff19169055341561001a57600080fd5b60038054600160a060020a033316600160a060020a031991821681179091168117909155600060078190556b025bd7834bb45d9d1a000000808255828252600160205260408083208290557fddf252ad1be2c89b69c2b068fc378daa952ba7f163c4a11628f55a4df523b3ef91905190815260200160405180910390a36112f5806100a66000396000f3006060604052600436106101e25763ffffffff7c010000000000000000000000000000000000000000000000000000000060003504166306fdde0381146101e7578063095ea7b3146102715780630f6413b7146102a757806318160ddd146102ba5780631986bc55146102df5780631c02708d146102f457806322a026611461030757806323b872dd14610326578063313ce5671461034e578063350467221461036157806337253e35146103805780633f7b7380146103995780634ff92d6f146103cb5780635600e827146103de5780635808ee15146103f157806363b3c00714610410578063661884631461042357806370a082311461036157806375b3a83e14610445578063782b234014610458578063796b89b91461046b57806379ae1c361461047e5780637fc90a5c1461049157806381325e54146105605780638a56d1151461057f5780638da5cb5b1461059257806395d89b41146105a5578063a9059cbb146105b8578063a96a4998146105da578063b1efeece146105ed578063b643f2c914610600578063c85bc22d14610613578063d6d5c8d514610626578063d73dd62314610639578063dd62ed3e1461065b578063de07a88614610680578063e799059614610693578063f2fde38b146106d4578063fd5d173b146106f3575b600080fd5b34156101f257600080fd5b6101fa610706565b60405160208082528190810183818151815260200191508051906020019080838360005b8381101561023657808201518382015260200161021e565b50505050905090810190601f1680156102635780820380516001836020036101000a031916815260200191505b509250505060405180910390f35b341561027c57600080fd5b610293600160a060020a036004351660243561073d565b604051901515815260200160405180910390f35b34156102b257600080fd5b6102936107e3565b34156102c557600080fd5b6102cd6107ec565b60405190815260200160405180910390f35b34156102ea57600080fd5b6102f26107f2565b005b34156102ff57600080fd5b6102f261082c565b341561031257600080fd5b6102cd600160a060020a0360043516610855565b341561033157600080fd5b610293600160a060020a0360043581169060243516604435610867565b341561035957600080fd5b6102cd610991565b341561036c57600080fd5b6102cd600160a060020a0360043516610996565b341561038b57600080fd5b6102f26004356024356109b1565b34156103a457600080fd5b6103af600435610c0c565b604051600160a060020a03909116815260200160405180910390f35b34156103d657600080fd5b6102cd610c34565b34156103e957600080fd5b6102cd610c3b565b34156103fc57600080fd5b6102f2600160a060020a0360043516610c4d565b341561041b57600080fd5b610293610c97565b341561042e57600080fd5b610293600160a060020a0360043516602435610cc6565b341561045057600080fd5b6102cd610dc0565b341561046357600080fd5b6102cd610dc8565b341561047657600080fd5b6102cd610dd0565b341561048957600080fd5b6102f2610dd4565b341561049c57600080fd5b6102f260046024813581810190830135806020818102016040519081016040528093929190818152602001838360200280828437820191505050505050919080359060200190820180359060200190808060200260200160405190810160405280939291908181526020018383602002808284378201915050505050509190803590602001908201803590602001908080602002602001604051908101604052809392919081815260200183836020028082843750949650610e0095505050505050565b341561056b57600080fd5b6102cd600160a060020a0360043516610f6c565b341561058a57600080fd5b6102cd610f7e565b341561059d57600080fd5b6103af610f83565b34156105b057600080fd5b6101fa610f92565b34156105c357600080fd5b610293600160a060020a0360043516602435610fc9565b34156105e557600080fd5b6102cd61109f565b34156105f857600080fd5b6102cd6110a4565b341561060b57600080fd5b6102936110aa565b341561061e57600080fd5b6102cd6110b8565b341561063157600080fd5b6102cd6110bd565b341561064457600080fd5b610293600160a060020a03600435166024356110c2565b341561066657600080fd5b6102cd600160a060020a0360043581169060243516611166565b341561068b57600080fd5b6102cd611191565b341561069e57600080fd5b6106b2600160a060020a0360043516611197565b604051600160a060020a03909216825260208201526040908101905180910390f35b34156106df57600080fd5b6102f2600160a060020a03600435166111b4565b34156106fe57600080fd5b6102cd611213565b60408051908101604052600881527f4f5a54546f6b656e000000000000000000000000000000000000000000000000602082015281565b600081158061076f5750600160a060020a03338116600090815260026020908152604080832093871683529290522054155b151561077a57600080fd5b600160a060020a03338116600081815260026020908152604080832094881680845294909152908190208590557f8c5be1e5ebec7d5bd14f71427d1e84f3dd0314c0f7b2291e5b200ac8c7c3b9259085905190815260200160405180910390a350600192915050565b60085460ff1681565b60005481565b60035433600160a060020a0390811691161461080d57600080fd5b60085460ff161561081d57600080fd5b6008805460ff19166001179055565b60035433600160a060020a0390811691161461084757600080fd5b600354600160a060020a0316ff5b60056020526000908152604090205481565b600080600160a060020a038416151561087f57600080fd5b50600160a060020a038085166000818152600260209081526040808320339095168352938152838220549282526001905291909120546108c5908463ffffffff61122316565b600160a060020a0380871660009081526001602052604080822093909355908616815220546108fa908463ffffffff61123516565b600160a060020a038516600090815260016020526040902055610923818463ffffffff61122316565b600160a060020a03808716600081815260026020908152604080832033861684529091529081902093909355908616917fddf252ad1be2c89b69c2b068fc378daa952ba7f163c4a11628f55a4df523b3ef9086905190815260200160405180910390a3506001949350505050565b601281565b600160a060020a031660009081526001602052604090205490565b600080600080600080600080600a60009054906101000a9004600160a060020a0316600160a060020a031633600160a060020a03161480610a00575060035433600160a060020a039081169116145b1515610a0b57600080fd5b635afd8ae04211610a1b57600080fd5b600854610100900460ff1615610a3057600080fd5b60008a10158015610a4357506004548911155b1515610a4e57600080fd5b89158015610a5a575088155b15610a695760045460009a5098505b6003610a73610c3b565b03975060008813610a8357600080fd5b879650610a8e610c97565b1515600114610a9c57600080fd5b8995505b88861015610c00576004805487908110610ab657fe5b6000918252602080832090910154600160a060020a031680835260058252604080842054600690935290922054919650610aef91611235565b935060009250610b0084601461124b565b91508660011415610b1d57610b1682600a611262565b9250610b43565b610b34610b2d6001890386611262565b601461124b565b610b3f83600a611262565b0192505b600160a060020a038516600090815260066020526040902054610b67908490611223565b9050600081118015610b795750600083115b15610bf557600160a060020a038516600090815260056020526040902054610ba19082611223565b600160a060020a038616600090815260056020908152604080832093909355600690522054610bd09082611235565b600160a060020a038616600090815260066020526040902055610bf38582610fc9565b505b600190950194610aa0565b50505050505050505050565b6004805482908110610c1a57fe5b600091825260209091200154600160a060020a0316905081565b6007545b90565b61a8c0603c635afd8adf194201050590565b60035433600160a060020a03908116911614610c6857600080fd5b600a805473ffffffffffffffffffffffffffffffffffffffff1916600160a060020a0392909216919091179055565b600080610ca2610c3b565b9050600381138015610cbf5750610cbb6003600b611235565b8111155b91505b5090565b600160a060020a03338116600090815260026020908152604080832093861683529290529081205480831115610d2357600160a060020a033381166000908152600260209081526040808320938816835292905290812055610d5a565b610d33818463ffffffff61122316565b600160a060020a033381166000908152600260209081526040808320938916835292905220555b600160a060020a0333811660008181526002602090815260408083209489168084529490915290819020547f8c5be1e5ebec7d5bd14f71427d1e84f3dd0314c0f7b2291e5b200ac8c7c3b925915190815260200160405180910390a35060019392505050565b635afd8ae081565b635afd8ae090565b4290565b60035433600160a060020a03908116911614610def57600080fd5b6008805461ff001916610100179055565b60035460009081908190819033600160a060020a03908116911614610e2457600080fd5b60085460ff1615610e3457600080fd5b85518751148015610e46575084518751145b1515610e5157600080fd5b600093505b8651841015610f6357868481518110610e6b57fe5b906020019060200201519250610e9e868581518110610e8657fe5b90602001906020020151670de0b6b3a7640000611262565b9150848481518110610eac57fe5b906020019060200201519050801515610ede57610ec98383610fc9565b50610ed660075483611235565b600755610f58565b8060011415610f58576004805460018101610ef98382611286565b506000918252602080832091909101805473ffffffffffffffffffffffffffffffffffffffff1916600160a060020a03871690811790915582526005815260408083208590556006909152812055600754610f549083611235565b6007555b600190930192610e56565b50505050505050565b60066020526000908152604090205481565b600390565b600354600160a060020a031681565b60408051908101604052600381527f4f5a540000000000000000000000000000000000000000000000000000000000602082015281565b6000600160a060020a0383161515610fe057600080fd5b600160a060020a033316600090815260016020526040902054611009908363ffffffff61122316565b600160a060020a03338116600090815260016020526040808220939093559085168152205461103e908363ffffffff61123516565b600160a060020a0380851660008181526001602052604090819020939093559133909116907fddf252ad1be2c89b69c2b068fc378daa952ba7f163c4a11628f55a4df523b3ef9085905190815260200160405180910390a350600192915050565b601481565b60075481565b600854610100900460ff1681565b601490565b600381565b600160a060020a0333811660009081526002602090815260408083209386168352929052908120546110fa908363ffffffff61123516565b600160a060020a0333811660008181526002602090815260408083209489168084529490915290819020849055919290917f8c5be1e5ebec7d5bd14f71427d1e84f3dd0314c0f7b2291e5b200ac8c7c3b92591905190815260200160405180910390a350600192915050565b600160a060020a03918216600090815260026020908152604080832093909416825291909152205490565b61a8c081565b600160a060020a0381166000908152600160205260409020549091565b60035433600160a060020a039081169116146111cf57600080fd5b600160a060020a03811615156111e457600080fd5b6003805473ffffffffffffffffffffffffffffffffffffffff1916600160a060020a0392909216919091179055565b6b025bd7834bb45d9d1a00000081565b60008282111561122f57fe5b50900390565b60008282018381101561124457fe5b9392505050565b600080828481151561125957fe5b04949350505050565b600082820283158061127e575082848281151561127b57fe5b04145b151561124457fe5b8154818355818115116112aa576000838152602090206112aa9181019083016112af565b505050565b610c3891905b80821115610cc257600081556001016112b55600a165627a7a72305820e1c0d2371fb837ac07c969adfb59b8d4151e37ad78e369a833e590f5bb203c2e0029",
  "source": "pragma solidity 0.4.21;\n\nimport \"./StandardToken.sol\";\nimport \"./Ownable.sol\";\nimport \"./SafeMath.sol\";\n\ncontract OZTToken is StandardToken, Ownable {\n\n\t/* Overriding some ERC20 variables */\n\tstring public constant name      = \"OZTToken\";\n\tstring public constant symbol    = \"OZT\";\n\tuint256 public constant decimals = 18;\n\n\tuint256 public constant MAX_NUM_OZT_TOKENS    =  730000000 * 10 ** decimals;\n\n\t// Freeze duration for Advisors accounts\n\tuint256 public constant START_ICO_TIMESTAMP   = 1526565600;  // ICO starts at 17.05.2018 @ 2PM UTC\n\tint public constant DEFROST_MONTH_IN_MINUTES = 43200; // month in minutes\n\tint public constant DEFROST_MONTHS = 3;\n\n\t/*\n\t\tmodalités de sorties des advisors investisseurs ou des earlybirds j’opte pour\n\t\t- un Freeze à 6 mois puis au bout du 6ème mois\n\t\t- possible de sortir du capital de 50% du montant investi\n\t\t- puis par la suite 5% tous les mois ce qui nous donnera une sortie effective au bout de 10 mois et au total ça fera donc 16 mois\n\t*/\n\n\tuint public constant DEFROST_FACTOR = 20;\n\n\t// Fields that can be changed by functions\n\taddress[] public vIcedBalances;\n\tmapping (address => uint256) public icedBalances_frosted;\n    mapping (address => uint256) public icedBalances_defrosted;\n\n\t// Variable usefull for verifying that the assignedSupply matches that totalSupply\n\tuint256 public assignedSupply;\n\t//Boolean to allow or not the initial assignement of token (batch)\n\tbool public batchAssignStopped = false;\n\tbool public stopDefrost = false;\n\n\tuint oneTokenWeiPrice;\n\taddress defroster;\n\n\tfunction OZTToken() {\n\t\towner                \t= msg.sender;\n\t\tassignedSupply = 0;\n\n\t\t// mint all tokens\n\t\ttotalSupply = MAX_NUM_OZT_TOKENS;\n        balances[msg.sender] = MAX_NUM_OZT_TOKENS;\n        Transfer(address(0x0), msg.sender, MAX_NUM_OZT_TOKENS);\n\t}\n\n\tfunction setDefroster(address addr) onlyOwner {\n\t\tdefroster = addr;\n\t}\n\n \tmodifier onlyDefrosterOrOwner() {\n        require(msg.sender == defroster || msg.sender == owner);\n        _;\n    }\n\n\t/**\n   * @dev Transfer tokens in batches (of adresses)\n   * @param _vaddr address The address which you want to send tokens from\n   * @param _vamounts address The address which you want to transfer to\n   */\n  function batchAssignTokens(address[] _vaddr, uint[] _vamounts, uint[] _vDefrostClass ) onlyOwner {\n\n\t\t\trequire ( batchAssignStopped == false );\n\t\t\trequire ( _vaddr.length == _vamounts.length && _vaddr.length == _vDefrostClass.length);\n\t\t\t//Looping into input arrays to assign target amount to each given address\n\t\t\tfor (uint index=0; index<_vaddr.length; index++) {\n\n\t\t\t\taddress toAddress = _vaddr[index];\n\t\t\t\tuint amount = SafeMath.mul(_vamounts[index], 10 ** decimals);\n\t\t\t\tuint defrostClass = _vDefrostClass[index]; // 0=ico investor, 1=reserveandteam/advisors\n\n\t\t\t\tif (  defrostClass == 0 ) {\n\t\t\t\t\t// investor account\n\t\t\t\t\ttransfer(toAddress, amount);\n\t\t\t\t\tassignedSupply = SafeMath.add(assignedSupply, amount);\n\t\t\t\t}\n\t\t\t\telse if(defrostClass == 1){\n\n\t\t\t\t\t// Iced account. The balance is not affected here\n                    vIcedBalances.push(toAddress);\n                    icedBalances_frosted[toAddress] = amount;\n\t\t\t\t\ticedBalances_defrosted[toAddress] = 0;\n\t\t\t\t\tassignedSupply = SafeMath.add(assignedSupply, amount);\n\t\t\t\t}\n\t\t\t}\n\t}\n\n\tfunction getBlockTimestamp() constant returns (uint256){\n\t\treturn now;\n\t}\n\n\tfunction getAssignedSupply() constant returns (uint256){\n\t\treturn assignedSupply;\n\t}\n\n\tfunction elapsedMonthsFromICOStart() constant returns (int elapsed) {\n\t\telapsed = (int(now-START_ICO_TIMESTAMP)/60)/DEFROST_MONTH_IN_MINUTES;\n\t}\n\n\tfunction getDefrostFactor()constant returns (uint){\n\t\treturn DEFROST_FACTOR;\n\t}\n\n\tfunction lagDefrost()constant returns (int){\n\t\treturn DEFROST_MONTHS;\n\t}\n\n\tfunction canDefrost() constant returns (bool){\n\t\tint numMonths = elapsedMonthsFromICOStart();\n\t\treturn  numMonths > DEFROST_MONTHS &&\n\t\t\t\t\t\t\tuint(numMonths) <= SafeMath.add(uint(DEFROST_MONTHS),  DEFROST_FACTOR/2+1);\n\t}\n\n\tfunction defrostTokens(uint fromIdx, uint toIdx) onlyDefrosterOrOwner {\n\n\t\trequire(now>START_ICO_TIMESTAMP);\n\t\trequire(stopDefrost == false);\n\t\trequire(fromIdx>=0 && toIdx<=vIcedBalances.length);\n\t\tif(fromIdx==0 && toIdx==0){\n\t\t\tfromIdx = 0;\n\t\t\ttoIdx = vIcedBalances.length;\n\t\t}\n\n\t\tint monthsElapsedFromFirstDefrost = elapsedMonthsFromICOStart() - DEFROST_MONTHS;\n\t\trequire(monthsElapsedFromFirstDefrost>0);\n\t\tuint monthsIndex = uint(monthsElapsedFromFirstDefrost);\n\t\t//require(monthsIndex<=DEFROST_FACTOR);\n\t\trequire(canDefrost() == true);\n\n\t\t/*\n\t\t\tif monthsIndex == 1 => defrost 50%\n\t\t\telse if monthsIndex <= 10  defrost 5%\n\t\t*/\n\n\t\t// Looping into the iced accounts\n        for (uint index = fromIdx; index < toIdx; index++) {\n\n\t\t\taddress currentAddress = vIcedBalances[index];\n            uint256 amountTotal = SafeMath.add(icedBalances_frosted[currentAddress], icedBalances_defrosted[currentAddress]);\n            uint256 targetDeFrosted = 0;\n\t\t\tuint256 fivePercAmount = SafeMath.div(amountTotal, DEFROST_FACTOR);\n\t\t\tif(monthsIndex==1){\n\t\t\t\ttargetDeFrosted = SafeMath.mul(fivePercAmount, 10);  //  10 times 5% = 50%\n\t\t\t}else{\n\t\t\t\ttargetDeFrosted = SafeMath.mul(fivePercAmount, 10) + SafeMath.div(SafeMath.mul(monthsIndex-1, amountTotal), DEFROST_FACTOR);\n\t\t\t}\n            uint256 amountToRelease = SafeMath.sub(targetDeFrosted, icedBalances_defrosted[currentAddress]);\n\n\t\t    if (amountToRelease > 0 && targetDeFrosted > 0) {\n                icedBalances_frosted[currentAddress] = SafeMath.sub(icedBalances_frosted[currentAddress], amountToRelease);\n                icedBalances_defrosted[currentAddress] = SafeMath.add(icedBalances_defrosted[currentAddress], amountToRelease);\n\t\t\t\ttransfer(currentAddress, amountToRelease);\n\t        }\n        }\n\t}\n\n\tfunction getStartIcoTimestamp() constant returns (uint) {\n\t\treturn START_ICO_TIMESTAMP;\n\t}\n\n\tfunction stopBatchAssign() onlyOwner {\n\t\t\trequire ( batchAssignStopped == false);\n\t\t\tbatchAssignStopped = true;\n\t}\n\n\tfunction getAddressBalance(address addr) constant returns (uint256 balance)  {\n\t\t\tbalance = balances[addr];\n\t}\n\n\tfunction getAddressAndBalance(address addr) constant returns (address _address, uint256 _amount)  {\n\t\t\t_address = addr;\n\t\t\t_amount = balances[addr];\n\t}\n\n\tfunction setStopDefrost() onlyOwner {\n\t\t\tstopDefrost = true;\n\t}\n\n\tfunction killContract() onlyOwner {\n\t\tselfdestruct(owner);\n\t}\n\n\n}\n",
  "sourcePath": "/Users/studnev/audit/OZT-studnev/contracts/OZTToken.sol",
  "compiler": {
    "name": "solc",
    "version": "0.4.21+commit.dfe3193c.Emscripten.clang"
  },
  "schemaVersion": "2.0.0",
  "updatedAt": "2018-05-24T09:05:45.297Z"
}