{
  "contractName": "OZTTokenSale",
  "abi": [
    {
      "constant": true,
      "inputs": [],
      "name": "hasClosed",
      "outputs": [
        {
          "name": "",
          "type": "bool"
        }
      ],
      "payable": false,
      "stateMutability": "view",
      "type": "function"
    },
    {
      "constant": true,
      "inputs": [],
      "name": "rate",
      "outputs": [
        {
          "name": "",
          "type": "uint256"
        }
      ],
      "payable": false,
      "stateMutability": "view",
      "type": "function"
    },
    {
      "constant": false,
      "inputs": [],
      "name": "unpause",
      "outputs": [],
      "payable": false,
      "stateMutability": "nonpayable",
      "type": "function"
    },
    {
      "constant": true,
      "inputs": [],
      "name": "weiRaised",
      "outputs": [
        {
          "name": "",
          "type": "uint256"
        }
      ],
      "payable": false,
      "stateMutability": "view",
      "type": "function"
    },
    {
      "constant": true,
      "inputs": [],
      "name": "closingTime",
      "outputs": [
        {
          "name": "",
          "type": "uint256"
        }
      ],
      "payable": false,
      "stateMutability": "view",
      "type": "function"
    },
    {
      "constant": true,
      "inputs": [],
      "name": "wallet",
      "outputs": [
        {
          "name": "",
          "type": "address"
        }
      ],
      "payable": false,
      "stateMutability": "view",
      "type": "function"
    },
    {
      "constant": true,
      "inputs": [],
      "name": "paused",
      "outputs": [
        {
          "name": "",
          "type": "bool"
        }
      ],
      "payable": false,
      "stateMutability": "view",
      "type": "function"
    },
    {
      "constant": false,
      "inputs": [],
      "name": "pause",
      "outputs": [],
      "payable": false,
      "stateMutability": "nonpayable",
      "type": "function"
    },
    {
      "constant": true,
      "inputs": [],
      "name": "min_wei_amount_sale",
      "outputs": [
        {
          "name": "",
          "type": "uint256"
        }
      ],
      "payable": false,
      "stateMutability": "view",
      "type": "function"
    },
    {
      "constant": true,
      "inputs": [],
      "name": "owner",
      "outputs": [
        {
          "name": "",
          "type": "address"
        }
      ],
      "payable": false,
      "stateMutability": "view",
      "type": "function"
    },
    {
      "constant": true,
      "inputs": [],
      "name": "openingTime",
      "outputs": [
        {
          "name": "",
          "type": "uint256"
        }
      ],
      "payable": false,
      "stateMutability": "view",
      "type": "function"
    },
    {
      "constant": true,
      "inputs": [],
      "name": "min_token_amount_sale",
      "outputs": [
        {
          "name": "",
          "type": "uint256"
        }
      ],
      "payable": false,
      "stateMutability": "view",
      "type": "function"
    },
    {
      "constant": false,
      "inputs": [
        {
          "name": "_beneficiary",
          "type": "address"
        }
      ],
      "name": "buyTokens",
      "outputs": [],
      "payable": true,
      "stateMutability": "payable",
      "type": "function"
    },
    {
      "constant": false,
      "inputs": [
        {
          "name": "newOwner",
          "type": "address"
        }
      ],
      "name": "transferOwnership",
      "outputs": [],
      "payable": false,
      "stateMutability": "nonpayable",
      "type": "function"
    },
    {
      "constant": true,
      "inputs": [],
      "name": "token",
      "outputs": [
        {
          "name": "",
          "type": "address"
        }
      ],
      "payable": false,
      "stateMutability": "view",
      "type": "function"
    },
    {
      "inputs": [
        {
          "name": "_openingTime",
          "type": "uint256"
        },
        {
          "name": "_closingTime",
          "type": "uint256"
        },
        {
          "name": "_rate",
          "type": "uint256"
        },
        {
          "name": "_wallet",
          "type": "address"
        },
        {
          "name": "_token",
          "type": "address"
        },
        {
          "name": "_min_token_amount_sale",
          "type": "uint256"
        }
      ],
      "payable": false,
      "stateMutability": "nonpayable",
      "type": "constructor"
    },
    {
      "payable": true,
      "stateMutability": "payable",
      "type": "fallback"
    },
    {
      "anonymous": false,
      "inputs": [
        {
          "indexed": true,
          "name": "purchaser",
          "type": "address"
        },
        {
          "indexed": true,
          "name": "beneficiary",
          "type": "address"
        },
        {
          "indexed": false,
          "name": "value",
          "type": "uint256"
        },
        {
          "indexed": false,
          "name": "amount",
          "type": "uint256"
        }
      ],
      "name": "TokenPurchase",
      "type": "event"
    },
    {
      "anonymous": false,
      "inputs": [],
      "name": "Pause",
      "type": "event"
    },
    {
      "anonymous": false,
      "inputs": [],
      "name": "Unpause",
      "type": "event"
    },
    {
      "anonymous": false,
      "inputs": [
        {
          "indexed": true,
          "name": "previousOwner",
          "type": "address"
        },
        {
          "indexed": true,
          "name": "newOwner",
          "type": "address"
        }
      ],
      "name": "OwnershipTransferred",
      "type": "event"
    },
    {
      "constant": false,
      "inputs": [
        {
          "name": "_to",
          "type": "address"
        },
        {
          "name": "_value",
          "type": "uint256"
        }
      ],
      "name": "transferTokens",
      "outputs": [],
      "payable": false,
      "stateMutability": "nonpayable",
      "type": "function"
    }
  ],
  "bytecode": "0x60806040526000805460a060020a60ff021916905534801561002057600080fd5b5060405160c08061086d83398101604090815281516020830151918301516060840151608085015160a09095015160008054600160a060020a03191633600160a060020a03161781559395929391929186908690869086908690831161008557600080fd5b600160a060020a038216151561009a57600080fd5b600160a060020a03811615156100af57600080fd5b60039290925560028054600160a060020a03928316600160a060020a03199182161790915560018054929093169116179055428210156100ee57600080fd5b818110156100fb57600080fd5b6005919091556006556007819055838181151561011457fe5b046008555050505050506107408061012d6000396000f3006080604052600436106100e55763ffffffff7c01000000000000000000000000000000000000000000000000000000006000350416631515bc2b81146100f05780632c4e722e146101195780633f4ba83a146101405780634042b66f146101555780634b6753bc1461016a578063521eb2731461017f5780635c975abb146101b05780638456cb59146101c557806388e1284b146101da5780638da5cb5b146101ef578063b7a8807c14610204578063bec3fa1714610219578063e9b5e8021461023d578063ec8ac4d814610252578063f2fde38b14610266578063fc0c546a14610287575b6100ee3361029c565b005b3480156100fc57600080fd5b50610105610349565b604080519115158252519081900360200190f35b34801561012557600080fd5b5061012e610351565b60408051918252519081900360200190f35b34801561014c57600080fd5b506100ee610357565b34801561016157600080fd5b5061012e6103d1565b34801561017657600080fd5b5061012e6103d7565b34801561018b57600080fd5b506101946103dd565b60408051600160a060020a039092168252519081900360200190f35b3480156101bc57600080fd5b506101056103ec565b3480156101d157600080fd5b506100ee6103fc565b3480156101e657600080fd5b5061012e61047b565b3480156101fb57600080fd5b50610194610481565b34801561021057600080fd5b5061012e610490565b34801561022557600080fd5b506100ee600160a060020a0360043516602435610496565b34801561024957600080fd5b5061012e610550565b6100ee600160a060020a036004351661029c565b34801561027257600080fd5b506100ee600160a060020a0360043516610556565b34801561029357600080fd5b506101946105ee565b3460006102a983836105fd565b6102b282610631565b6004549091506102c8908363ffffffff61064e16565b6004556102d5838261065b565b82600160a060020a031633600160a060020a03167f623b3804fa71d67900d064613da8f94b9617215ee90799290593e1745087ad188484604051808381526020018281526020019250505060405180910390a3610332838361062d565b61033a610665565b610344838361062d565b505050565b600654421190565b60035481565b60005433600160a060020a0390811691161461037257600080fd5b60005460a060020a900460ff16151561038a57600080fd5b6000805474ff0000000000000000000000000000000000000000191681556040517f7805862f689e2f13df9f062ff482ad3ad112aca9e0847911ed832e158c525b339190a1565b60045481565b60065481565b600254600160a060020a031681565b60005460a060020a900460ff1681565b60005433600160a060020a0390811691161461041757600080fd5b60005460a060020a900460ff161561042e57600080fd5b6000805474ff0000000000000000000000000000000000000000191660a060020a1781556040517f6985a02210a168e66602d3235cb6db0e70f92b3ba4d376a33c0f3d9434bff6259190a1565b60085481565b600054600160a060020a031681565b60055481565b60005433600160a060020a039081169116146104b157600080fd5b600154604080517fa9059cbb000000000000000000000000000000000000000000000000000000008152600160a060020a038581166004830152602482018590529151919092169163a9059cbb9160448083019260209291908290030181600087803b15801561052057600080fd5b505af1158015610534573d6000803e3d6000fd5b505050506040513d602081101561054a57600080fd5b50505050565b60075481565b60005433600160a060020a0390811691161461057157600080fd5b600160a060020a038116151561058657600080fd5b60008054604051600160a060020a03808516939216917f8be0079c531659141344cd1fd0a4f28419497f9722a3daafe3b4186f6b6457e091a36000805473ffffffffffffffffffffffffffffffffffffffff1916600160a060020a0392909216919091179055565b600154600160a060020a031681565b60005460a060020a900460ff161561061457600080fd5b60085481101561062357600080fd5b61062d82826106a1565b5050565b6000610648600354836106ca90919063ffffffff16565b92915050565b8181018281101561064857fe5b61062d82826104b1565b600254604051600160a060020a03909116903480156108fc02916000818181858888f1935050505015801561069e573d6000803e3d6000fd5b50565b60055442101580156106b557506006544211155b15156106c057600080fd5b61062d82826106f3565b60008215156106db57506000610648565b508181028183828115156106eb57fe5b041461064857fe5b600160a060020a038216151561070857600080fd5b80151561062d57600080fd00a165627a7a723058207674d6efc8d61a20a758ef979706713bed1f8d7088f6f6aac33159d721131f200029",
  "source": "pragma solidity 0.4.23;\n\nimport 'zeppelin-solidity/contracts/crowdsale/validation/TimedCrowdsale.sol';\nimport 'zeppelin-solidity/contracts/lifecycle/Pausable.sol';\n\n/**\n * @title Crowdsale for OZT token\n * @dev the crowdsale is based on Open Zeppelin implementation, adding the following functionality:\n *   1) it is limited in time\n *   2) owner can pause and resume the crowdsale if needed\n *   3) the minimum amount of single sale is limited\n *   4) tokens can be transfered to the recipient. It is used for 2 cases:\n *     4.1) when buyer pay other cuurrency (BTC/LTC), he provides the ethereum wallet and the tokens are manualy transfered during the token\n *       sale or after it\n *     4.2) after the finish of crowdsale all unsold tokens are transfered to owner\n *\n *  To use the crowdsale, the following procedure applied:\n *   1) contract is deployed, specifying time range, token address, rate ( token price ), wallet and minimum token same amount.\n *   2) tokens in the amount of token sale volume are transfered to the contract\n */\ncontract OZTTokenSale is Pausable, TimedCrowdsale {\n\n\n    // minimum amount of OZT tokens, allowed to buy\n    uint256 public min_token_amount_sale;\n    // minimum amount of ETH, used to buy tokens, derived from min_token_amount_sale\n    uint256 public min_wei_amount_sale;\n\n    function OZTTokenSale(  uint256 _openingTime,\n                            uint256 _closingTime,\n                            uint256 _rate,\n                            address _wallet,\n                            ERC20 _token,\n                            uint256 _min_token_amount_sale\n                            )\n        TimedCrowdsale( _openingTime,  _closingTime)\n        Crowdsale( _rate,  _wallet,  _token) public {\n        min_token_amount_sale = _min_token_amount_sale;\n        min_wei_amount_sale = _min_token_amount_sale / _rate;\n    }\n\n  /**\n   * @dev Extend parent behavior requiring to be within contributing period\n   * @param _beneficiary Token purchaser\n   * @param _weiAmount Amount of wei contributed\n   */\n  function _preValidatePurchase(address _beneficiary, uint256 _weiAmount) internal whenNotPaused {\n    require(_weiAmount >= min_wei_amount_sale);\n    super._preValidatePurchase(_beneficiary, _weiAmount);\n  }\n\n  /*\n  * @dev transfer tokens\n  * @param _to token receiver\n  * @param _value token amount\n  */\n  function transferTokens(address _to, uint256 _value) onlyOwner public {\n    token.transfer(_to, _value);\n  }\n\n\n\n}\n",
  "sourcePath": "/Users/studnev/audit/OZT-studnev/contracts/OZTTokenSale.sol",
  "compiler": {
    "name": "solc",
    "version": "0.4.23+commit.124ca40d.Emscripten.clang"
  },
  "schemaVersion": "2.0.0",
  "updatedAt": "2018-05-24T18:52:31.277Z"
}