{
  "contractName": "OZTTokenSale",
  "abi": [
    {
      "constant": true,
      "inputs": [],
      "name": "hasClosed",
      "outputs": [
        {
          "name": "",
          "type": "bool"
        }
      ],
      "payable": false,
      "stateMutability": "view",
      "type": "function"
    },
    {
      "constant": true,
      "inputs": [],
      "name": "rate",
      "outputs": [
        {
          "name": "",
          "type": "uint256"
        }
      ],
      "payable": false,
      "stateMutability": "view",
      "type": "function"
    },
    {
      "constant": false,
      "inputs": [],
      "name": "unpause",
      "outputs": [],
      "payable": false,
      "stateMutability": "nonpayable",
      "type": "function"
    },
    {
      "constant": true,
      "inputs": [],
      "name": "weiRaised",
      "outputs": [
        {
          "name": "",
          "type": "uint256"
        }
      ],
      "payable": false,
      "stateMutability": "view",
      "type": "function"
    },
    {
      "constant": true,
      "inputs": [],
      "name": "closingTime",
      "outputs": [
        {
          "name": "",
          "type": "uint256"
        }
      ],
      "payable": false,
      "stateMutability": "view",
      "type": "function"
    },
    {
      "constant": true,
      "inputs": [],
      "name": "wallet",
      "outputs": [
        {
          "name": "",
          "type": "address"
        }
      ],
      "payable": false,
      "stateMutability": "view",
      "type": "function"
    },
    {
      "constant": true,
      "inputs": [],
      "name": "paused",
      "outputs": [
        {
          "name": "",
          "type": "bool"
        }
      ],
      "payable": false,
      "stateMutability": "view",
      "type": "function"
    },
    {
      "constant": false,
      "inputs": [],
      "name": "pause",
      "outputs": [],
      "payable": false,
      "stateMutability": "nonpayable",
      "type": "function"
    },
    {
      "constant": true,
      "inputs": [],
      "name": "min_wei_amount_sale",
      "outputs": [
        {
          "name": "",
          "type": "uint256"
        }
      ],
      "payable": false,
      "stateMutability": "view",
      "type": "function"
    },
    {
      "constant": true,
      "inputs": [],
      "name": "owner",
      "outputs": [
        {
          "name": "",
          "type": "address"
        }
      ],
      "payable": false,
      "stateMutability": "view",
      "type": "function"
    },
    {
      "constant": true,
      "inputs": [],
      "name": "openingTime",
      "outputs": [
        {
          "name": "",
          "type": "uint256"
        }
      ],
      "payable": false,
      "stateMutability": "view",
      "type": "function"
    },
    {
      "constant": true,
      "inputs": [],
      "name": "min_token_amount_sale",
      "outputs": [
        {
          "name": "",
          "type": "uint256"
        }
      ],
      "payable": false,
      "stateMutability": "view",
      "type": "function"
    },
    {
      "constant": false,
      "inputs": [
        {
          "name": "_beneficiary",
          "type": "address"
        }
      ],
      "name": "buyTokens",
      "outputs": [],
      "payable": true,
      "stateMutability": "payable",
      "type": "function"
    },
    {
      "constant": false,
      "inputs": [
        {
          "name": "newOwner",
          "type": "address"
        }
      ],
      "name": "transferOwnership",
      "outputs": [],
      "payable": false,
      "stateMutability": "nonpayable",
      "type": "function"
    },
    {
      "constant": true,
      "inputs": [],
      "name": "token",
      "outputs": [
        {
          "name": "",
          "type": "address"
        }
      ],
      "payable": false,
      "stateMutability": "view",
      "type": "function"
    },
    {
      "inputs": [
        {
          "name": "_openingTime",
          "type": "uint256"
        },
        {
          "name": "_closingTime",
          "type": "uint256"
        },
        {
          "name": "_rate",
          "type": "uint256"
        },
        {
          "name": "_wallet",
          "type": "address"
        },
        {
          "name": "_token",
          "type": "address"
        },
        {
          "name": "_min_token_amount_sale",
          "type": "uint256"
        }
      ],
      "payable": false,
      "stateMutability": "nonpayable",
      "type": "constructor"
    },
    {
      "payable": true,
      "stateMutability": "payable",
      "type": "fallback"
    },
    {
      "anonymous": false,
      "inputs": [
        {
          "indexed": true,
          "name": "purchaser",
          "type": "address"
        },
        {
          "indexed": true,
          "name": "beneficiary",
          "type": "address"
        },
        {
          "indexed": false,
          "name": "value",
          "type": "uint256"
        },
        {
          "indexed": false,
          "name": "amount",
          "type": "uint256"
        }
      ],
      "name": "TokenPurchase",
      "type": "event"
    },
    {
      "anonymous": false,
      "inputs": [],
      "name": "Pause",
      "type": "event"
    },
    {
      "anonymous": false,
      "inputs": [],
      "name": "Unpause",
      "type": "event"
    },
    {
      "anonymous": false,
      "inputs": [
        {
          "indexed": true,
          "name": "previousOwner",
          "type": "address"
        },
        {
          "indexed": true,
          "name": "newOwner",
          "type": "address"
        }
      ],
      "name": "OwnershipTransferred",
      "type": "event"
    },
    {
      "constant": false,
      "inputs": [],
      "name": "destroy",
      "outputs": [],
      "payable": false,
      "stateMutability": "nonpayable",
      "type": "function"
    },
    {
      "constant": false,
      "inputs": [
        {
          "name": "_recipient",
          "type": "address"
        }
      ],
      "name": "destroyAndSend",
      "outputs": [],
      "payable": false,
      "stateMutability": "nonpayable",
      "type": "function"
    }
  ],
  "bytecode": "0x60606040526000805460a060020a60ff0219169055341561001f57600080fd5b60405160c080610a5683398101604052808051919060200180519190602001805191906020018051919060200180519190602001805160008054600160a060020a03191633600160a060020a03161781559092508791508690869086908690831161008957600080fd5b600160a060020a038216151561009e57600080fd5b600160a060020a03811615156100b357600080fd5b60039290925560028054600160a060020a03928316600160a060020a03199182161790915560018054929093169116179055428210156100f257600080fd5b818110156100ff57600080fd5b6005919091556006556007819055838181151561011857fe5b04600855505050505050610925806101316000396000f3006060604052600436106100d75763ffffffff60e060020a6000350416631515bc2b81146100e25780632c4e722e146101095780633f4ba83a1461012e5780634042b66f146101415780634b6753bc14610154578063521eb273146101675780635c975abb1461019657806383197ef0146101a95780638456cb59146101bc57806388e1284b146101cf5780638da5cb5b146101e2578063b7a8807c146101f5578063e9b5e80214610208578063ec8ac4d81461021b578063f2fde38b1461022f578063f5074f411461024e578063fc0c546a1461026d575b6100e033610280565b005b34156100ed57600080fd5b6100f5610328565b604051901515815260200160405180910390f35b341561011457600080fd5b61011c610330565b60405190815260200160405180910390f35b341561013957600080fd5b6100e0610336565b341561014c57600080fd5b61011c6103b5565b341561015f57600080fd5b61011c6103bb565b341561017257600080fd5b61017a6103c1565b604051600160a060020a03909116815260200160405180910390f35b34156101a157600080fd5b6100f56103d0565b34156101b457600080fd5b6100e06103e0565b34156101c757600080fd5b6100e06104d5565b34156101da57600080fd5b61011c610559565b34156101ed57600080fd5b61017a61055f565b341561020057600080fd5b61011c61056e565b341561021357600080fd5b61011c610574565b6100e0600160a060020a0360043516610280565b341561023a57600080fd5b6100e0600160a060020a036004351661057a565b341561025957600080fd5b6100e0600160a060020a0360043516610615565b341561027857600080fd5b61017a61071a565b34600061028d8383610729565b6102968261075d565b6004549091506102ac908363ffffffff61077a16565b6004556102b98382610787565b82600160a060020a031633600160a060020a03167f623b3804fa71d67900d064613da8f94b9617215ee90799290593e1745087ad18848460405191825260208201526040908101905180910390a36103118383610759565b610319610791565b6103238383610759565b505050565b600654421190565b60035481565b60005433600160a060020a0390811691161461035157600080fd5b60005460a060020a900460ff16151561036957600080fd5b6000805474ff0000000000000000000000000000000000000000191690557f7805862f689e2f13df9f062ff482ad3ad112aca9e0847911ed832e158c525b3360405160405180910390a1565b60045481565b60065481565b600254600160a060020a031681565b60005460a060020a900460ff1681565b60005433600160a060020a039081169116146103fb57600080fd5b600154600054600160a060020a039182169163a9059cbb9116826370a082313060405160e060020a63ffffffff8416028152600160a060020a039091166004820152602401602060405180830381600087803b151561045957600080fd5b5af1151561046657600080fd5b5050506040518051905060405160e060020a63ffffffff8516028152600160a060020a0390921660048301526024820152604401602060405180830381600087803b15156104b357600080fd5b5af115156104c057600080fd5b50505060405180519050506104d36107c5565b565b60005433600160a060020a039081169116146104f057600080fd5b60005460a060020a900460ff161561050757600080fd5b6000805474ff0000000000000000000000000000000000000000191660a060020a1790557f6985a02210a168e66602d3235cb6db0e70f92b3ba4d376a33c0f3d9434bff62560405160405180910390a1565b60085481565b600054600160a060020a031681565b60055481565b60075481565b60005433600160a060020a0390811691161461059557600080fd5b600160a060020a03811615156105aa57600080fd5b600054600160a060020a0380831691167f8be0079c531659141344cd1fd0a4f28419497f9722a3daafe3b4186f6b6457e060405160405180910390a36000805473ffffffffffffffffffffffffffffffffffffffff1916600160a060020a0392909216919091179055565b60005433600160a060020a0390811691161461063057600080fd5b600160a060020a038116151561064557600080fd5b600154600160a060020a031663a9059cbb82826370a082313060405160e060020a63ffffffff8416028152600160a060020a039091166004820152602401602060405180830381600087803b151561069c57600080fd5b5af115156106a957600080fd5b5050506040518051905060405160e060020a63ffffffff8516028152600160a060020a0390921660048301526024820152604401602060405180830381600087803b15156106f657600080fd5b5af1151561070357600080fd5b5050506040518051905050610717816107ee565b50565b600154600160a060020a031681565b60005460a060020a900460ff161561074057600080fd5b60085481101561074f57600080fd5b6107598282610815565b5050565b60006107746003548361083e90919063ffffffff16565b92915050565b8181018281101561077457fe5b6107598282610867565b600254600160a060020a03163480156108fc0290604051600060405180830381858888f1935050505015156104d357600080fd5b60005433600160a060020a039081169116146107e057600080fd5b600054600160a060020a0316ff5b60005433600160a060020a0390811691161461080957600080fd5b80600160a060020a0316ff5b600554421015801561082957506006544211155b151561083457600080fd5b61075982826108d8565b600082151561084f57506000610774565b5081810281838281151561085f57fe5b041461077457fe5b600154600160a060020a031663a9059cbb838360405160e060020a63ffffffff8516028152600160a060020a0390921660048301526024820152604401602060405180830381600087803b15156108bd57600080fd5b5af115156108ca57600080fd5b505050604051805150505050565b600160a060020a03821615156108ed57600080fd5b80151561075957600080fd00a165627a7a723058201e4a90568b9128ddd47950dd92904f87ed16aa50ebad237dc4243b55ad9570060029",
  "source": "pragma solidity 0.4.21;\n\nimport 'zeppelin-solidity/contracts/crowdsale/validation/TimedCrowdsale.sol';\nimport 'zeppelin-solidity/contracts/lifecycle/Destructible.sol';\nimport 'zeppelin-solidity/contracts/lifecycle/Pausable.sol';\n\n\ncontract OZTTokenSale is Destructible, Pausable, TimedCrowdsale {\n\n\n    // minimum amount of OZT tokens, allowed to buy\n    uint256 public min_token_amount_sale;\n    // minimum amount of ETH, used to buy tokens, derived from min_token_amount_sale\n    uint256 public min_wei_amount_sale;\n\n    function OZTTokenSale(  uint256 _openingTime,\n                            uint256 _closingTime,\n                            uint256 _rate,\n                            address _wallet,\n                            ERC20 _token,\n                            uint256 _min_token_amount_sale\n                            )\n        TimedCrowdsale( _openingTime,  _closingTime)\n        Crowdsale( _rate,  _wallet,  _token) public {\n        min_token_amount_sale = _min_token_amount_sale;\n        min_wei_amount_sale = _min_token_amount_sale / _rate;\n    }\n\n  /**\n   * @dev Extend parent behavior requiring to be within contributing period\n   * @param _beneficiary Token purchaser\n   * @param _weiAmount Amount of wei contributed\n   */\n  function _preValidatePurchase(address _beneficiary, uint256 _weiAmount) internal whenNotPaused {\n    require(_weiAmount >= min_wei_amount_sale);\n    super._preValidatePurchase(_beneficiary, _weiAmount);\n  }\n\n  /*\n  * @dev destroy contract, send all tokens back to owner\n  */\n  function destroy() onlyOwner public {\n    token.transfer(owner, token.balanceOf(this));\n    super.destroy();\n  }\n\n  /*\n  * @dev destroy contract, send all tokens to recepient\n  * @param _recipient Token receiver\n  *\n  */\n  function destroyAndSend(address _recipient) onlyOwner public {\n    require(_recipient!=address(0));\n    token.transfer(_recipient, token.balanceOf(this));\n    super.destroyAndSend(_recipient);\n  }\n\n\n}\n",
  "sourcePath": "/Users/studnev/audit/OZT-studnev/contracts/OZTTokenSale.sol",
  "compiler": {
    "name": "solc",
    "version": "0.4.21+commit.dfe3193c.Emscripten.clang"
  },
  "schemaVersion": "2.0.0",
  "updatedAt": "2018-05-23T04:08:28.654Z"
}